:100000000A128A111028CE34FE00030E8316031341
:10001000B2000A08B3007F08B4000A128A15FC2E49
:100020000A128A111328831603130A128A11032055
:100030000A128A11CA008313B9308400CA300A1226
:100040008A11F2270A128A1183120313EE01EF01BB
:1000500083010A128A156C2C831203133D08803920
:10006000C2004208C7003D08C2004207C30043085F
:10007000CD00BC1F3C283D283E284D144D080319D7
:100080004228432852284D0A031D47284828502853
:100090000030BD000030BC000030BB000030BA00B2
:1000A000BC175A280030BD000030BC000030BB0037
:1000B0000030BA0041088039C2004208C706410832
:1000C000C2004207C3004308CC00C01F682869284B
:1000D0006A284C144C0803196E286F287E284C0A95
:1000E000031D732874287C280030C1000030C00034
:1000F0000030BF000030BE00C01786280030C100AD
:100100000030C0000030BF000030BE004C080319B2
:100110008A288B2890284D08031D8F28902899281D
:100120000030BD000030BC000030BB000030BA0021
:100130008C2B3A08C2004208F00040080A128A15C7
:1001400006240A128A11710883120313D30070085F
:10015000D2005208C200C301C401C5014508CB004A
:100160004408CA004308C9004208C8005308C20036
:10017000C301C401C5014508D1004408D0004308AB
:10018000CF004208CE003B08C2004208F0003F0802
:100190000A128A1506240A128A117108831203139F
:1001A000D3007008D2005208C200C301C401C501C7
:1001B0004208C807430803110318013E0319E12848
:1001C000C907440803110318013E0319E828CA07A8
:1001D000450803110318013E0319EF28CB07530804
:1001E000C200C301C401C5014208CE074308031180
:1001F0000318013E0319FD28CF0744080311031813
:10020000013E03190429D007450803110318013ED4
:1002100003190B29D1073C08C2004208F0003E0830
:100220000A128A1506240A128A117108831203130E
:10023000D3007008D2005208C200C301C401C50136
:100240004208C807430803110318013E031929296E
:10025000C907440803110318013E03193029CA07CE
:10026000450803110318013E03193729CB0753082A
:10027000C200C301C401C5014208CE0743080311EF
:100280000318013E03194529CF0744080311031839
:10029000013E03194C29D007450803110318013EFC
:1002A00003195329D1070830C2000310C80DC90D26
:1002B000CA0DCB0DC20B55293B08C2004208F00005
:1002C0003E080A128A1506240A128A11710883123E
:1002D0000313D3007008D2005208C2005308C300B1
:1002E000C401C5014208C807430803110318013EB1
:1002F00003197B29C907440803110318013E031998
:100300008229CA07450803110318013E03198929E8
:10031000CB073A08C2004208F0003F080A128A15CB
:1003200006240A128A11710883120313D30070087D
:10033000D2005208C2005308C300C401C5014208DC
:10034000C807430803110318013E0319A829C90768
:10035000440803110318013E0319AF29CA074508D1
:1003600003110318013E0319B629CB070830C20058
:100370000310C80DC90DCA0DCB0DC20BB8293A0820
:10038000C2004208F0003E080A128A1506240A122A
:100390008A11710883120313D3007008D200520827
:1003A000C2005308C300C401C5014208C80743087E
:1003B00003110318013E0319DE29C907440803117C
:1003C0000318013E0319E529CA074508031103185C
:1003D000013E0319EC29CB073B08C2004208F0009C
:1003E00040080A128A1506240A128A11710883121B
:1003F0000313D3007008D2005208C2005308C30090
:10040000C401C5014208CE07430803110318013E89
:1004100003190B2ACF07440803110318013E0319DF
:10042000122AD007450803110318013E0319192A9F
:10043000D1073C08C2004208F0003F080A128A15A2
:1004400006240A128A11710883120313D30070085C
:10045000D2005208C2005308C300C401C5014208BB
:10046000CE07430803110318013E0319382ACF07AA
:10047000440803110318013E03193F2AD007450819
:1004800003110318013E0319462AD1073C08C20094
:100490004208F00040080A128A1506240A128A113E
:1004A000710883120313D3007008D2005208C200EF
:1004B0005308C300C401C50108300310C20DC30DA9
:1004C000C40DC50DFF3E031D5D2A4208CE0743083B
:1004D00003110318013E03196E2ACF0744080311C4
:1004E0000318013E0319752AD007450803110318A4
:1004F000013E03197C2AD1074808C2004908C300FD
:100500004A08C4004B08C50018300310C50CC40CC1
:10051000C30CC20CFF3E031D852A4208CE074308C8
:1005200003110318013E0319962ACF07440803114B
:100530000318013E03199D2AD0074508031103182B
:10054000013E0319A42AD1070830C2000310C80DC8
:10055000C90DCA0DCB0DC20BA62A4D084C07C2000F
:10056000C301C30D4208823ED20043080318013E76
:10057000FF3ED300D82A0130C2000310CE0DCF0DAC
:10058000D00DD10DC20BBD2ACB1FC72AC82AC92A3C
:100590004E140130C2000310C80DC90DCA0DCB0D99
:1005A000C20BCB2AFF30D2070318D30AFF30D30780
:1005B000D01FDB2ADC2ABB2ACC01CB1FE02AE12A90
:1005C000FD2AFF304805C200FF304905C300FF3057
:1005D0004A05C4007F304B05C50045084404430468
:1005E00042040319F42AF52AF82ACC01CC0AFD2A80
:1005F0004E1CFB2AFC2AFD2AF52A4C080319012B64
:10060000022B332B0130CE07003003180130CF0707
:10061000003003180130D007003003180130D10733
:10062000511C132B142B332B4E08C2004F08C30050
:100630005008C4005108C5000130C600450DC50C66
:10064000C40CC30CC20CC60B1E2B4508D1004408B9
:10065000D0004308CF004208CE000130D207031873
:10066000D30A0030D3075308803AFF0080307F025E
:10067000031D3C2BFF305202031C3F2B402B4B2B06
:100680007F3083120313D1008030D0000030CF00C0
:100690000030CE00802B831203135308803AFF00F2
:1006A00080307F02031D562B013052020318592B54
:1006B0005A2B662B003083120313D1000030D00078
:1006C0000030CF000030CE00C701802B831203130F
:1006D0005208C2004208CD00FF30CE05FF30CF05E2
:1006E0007F30D0050030D1054D1C772B782B792B2E
:1006F000D0174D08C2000310420CC3004308D100BC
:100700004708C2004208D1045108BD005008BC008F
:100710004F08BB004E08BA000800831203135708A5
:100720008039DC005C08E4005708DC005C07DD0071
:100730005D08E600D61F9D2B9E2B9F2B6614660836
:100740000319A32BA42BB42B660A031DA82BA92BDA
:10075000B12B0030D7000030D6000030D50000307B
:10076000D400D617D701BC2B0030D7000030D600FC
:100770000030D5000030D4005B088039DC005C0814
:10078000E500650864060319C62BC72BC82B641740
:100790005B08DC005C07DD005D08E500DA1FD12B9B
:1007A000D22BD32B651465080319D72BD82BE82B34
:1007B000650A031DDC2BDD2BE52B0030DB00003050
:1007C000DA000030D9000030D800DA17DB01F02B56
:1007D0000030DB000030DA000030D9000030D800F3
:1007E000660865020318F52BF62B3A2C641FF92BCB
:1007F000FA2BFE2B8030DC005C08E4066608DC0087
:100800005C08E7006508DC005C08E6006708DC00BF
:100810005C08E5005408DC005C08E7005808DC00D0
:100820005C08D4006708DC005C08D8005508DC00D0
:100830005C08E7005908DC005C08D5006708DC00AC
:100840005C08D9005608DC005C08E7005A08DC00A8
:100850005C08D6006708DC005C08DA005708DC009A
:100860005C08E7005B08DC005C08D7006708DC0078
:100870005C08DB00E7016508DC00DD015D08DF00E6
:1008800066085C02DE00031CDF035F08803AFF009D
:1008900080307F02031D4E2C1A305E02031C512C47
:1008A000522C8F2C831203135708560455045404FA
:1008B000031D5B2C5D2C01305E2C0030DC005C08DD
:1008C000E7000030D7000030D6000030D5000030FF
:1008D000D4006508DC005C08E600972C671C712CCE
:1008E000722C7B2C6708DC0003105C0C0138DD00E7
:1008F0005D08E7007D2C0310E70C541C802C812C34
:10090000822CE7170130DC00570DD70CD60CD50C24
:10091000D40CDC0B842C0130DC005C08E60783126D
:10092000031365086602031C962C972C6E2C641B1F
:100930009A2C9B2CE62C6608031D9F2CA02CA92C1E
:100940000030D7000030D6000030D5000030D40091
:10095000142E5808D407590803110318013E03192F
:10096000B22CD5075A0803110318013E0319B92CFC
:10097000D6075B0803110318013E0319C02CD707E3
:10098000571CC32CC42C9A2D671CC72CC82CD12CE7
:100990006708DC0003105C0C0138DD005D08E7002F
:1009A000D32C0310E70C541CD62CD72CD82CE717CB
:1009B0000130DC00570DD70CD60CD50CD40CDC0B59
:1009C000DA2C0130DC005C08E6079A2D5708803AE3
:1009D000FF005B08803A7F02031DF82C5A0856027C
:1009E000031DF82C59085502031DF82C5808540211
:1009F0000318FB2CFC2C542DFF30DC00FF30DD00F5
:100A0000FF30DE00FF30DF005808E0005908E10049
:100A10005A08E2005B08E3005408E0025508031C92
:100A2000550F132D142DE1025608031C560F192DD6
:100A30001A2DE2025708031C570F1F2D202DE30229
:100A40006008DC0761080318610F272D282DDD07DA
:100A500062080318620F2D2D2E2DDE076308031880
:100A6000630ADF075F08D7005E08D6005D08D5007F
:100A70005C08D4008030DC005C08E406E709E70A83
:100A80006708031D442D452D622D0130D407003029
:100A900003180130D507003003180130D6070030A5
:100AA00003180130D707622D5808D4025908031CD7
:100AB000590FD5025A08031C5A0FD6025B08031CB3
:100AC0005B0FD7025708560455045404031D692DC3
:100AD0006A2D962D6708031D6E2D6F2D962D003003
:100AE000D7000030D6000030D5000030D400142EDE
:100AF0000130DC000310D40DD50DD60DD70DDC0B65
:100B00007A2DE71F842D852D862D5414671C892D81
:100B10008A2D8D2D0314E70D8F2D0310E70D660828
:100B20000319932D942D962D0130E602D61F992D91
:100B30009A2D782DE501E71F9E2D9F2DAD2D67087D
:100B40007F390319A42DA52DA82DE501E50AAD2DAA
:100B5000541CAB2DAC2DAD2DA52D65080319B12D61
:100B6000B22DE62D0130D407003003180130D5072F
:100B7000003003180130D607003003180130D707C2
:100B8000571CC32DC42DE62D5408DC005508DD008C
:100B90005608DE005708DF000130E0005F0DDF0C73
:100BA000DE0CDD0CDC0CE00BCE2D5F08D7005E0800
:100BB000D6005D08D5005C08D400660A0319E12D53
:100BC000E22DE62D0130DC005C08E607660A031919
:100BD000EA2DEB2DF02D6608031DEF2DF02DFE2DD7
:100BE0000030D7000030D6000030D5000030D400EF
:100BF0006608031DFC2DFD2DFE2DE401661C012E53
:100C0000022E042ED617082E7F30DC005C08D60595
:100C10006608DC0003105C0CDD005D08D700E41FF3
:100C2000122E132E142ED717080083120313270831
:100C30008039A8002808B1002708A8002807A900C3
:100C40002908B800A61F252E262E272E381438086E
:100C500003192B2E2C2E3C2E380A031D302E312E3C
:100C6000392E0030A7000030A6000030A50000306B
:100C7000A400A617A701442E0030A7000030A6004C
:100C80000030A5000030A40023088039A8002808FF
:100C9000B1062308A8002807A9002908B900A21F47
:100CA000522E532E542E391439080319582E592E0A
:100CB000692E390A031D5D2E5E2E662E0030A300BC
:100CC0000030A2000030A1000030A000A217A30154
:100CD000712E0030A3000030A2000030A1000030CF
:100CE000A0002308220421042004031D782E792E5D
:100CF000922E0030A7000030A6000030A500003082
:100D0000A4008030A6047F30A7043108A80028087A
:100D1000A7042708A3002608A2002508A10024088C
:100D2000A000F12F3808031D962E972EA02E00301C
:100D3000A3000030A2000030A1000030A000F12F7D
:100D40003808A800A9012908AB0039082802AA0020
:100D5000031CAB032A087F3EB2002B080318013E98
:100D6000003EB3002708B0002608AF002508AE00FB
:100D70002408AD000030A7000030A6000030A50018
:100D80000030A4000030B7000030B6000030B500DD
:100D90000030B400B901162F39080319D02ED12E16
:100DA000F12E0130A8000310AD0DAE0DAF0DB00D4A
:100DB000A80BD32E0130A8000310A40DA50DA60D7D
:100DC000A70DA80BDC2EB71FE62EE72EE82E241465
:100DD0000130A8000310B40DB50DB60DB70DA80B6A
:100DE000EA2E23083002031DFF2E22082F02031DC6
:100DF000FF2E21082E02031DFF2E20082D02031CAA
:100E0000022F032F122F37172008AD022108031CD1
:100E1000210FAE022208031C220FAF022308031C7D
:100E2000230FB0020130A8002808B9071A30390290
:100E3000031C1B2F1C2FCC2E30082F042E042D0436
:100E40000319232F242F432F3414432F0130A800DC
:100E50000310A40DA50DA60DA70DA80B282FB71FD5
:100E6000322F332F342F24140130A8000310B40D77
:100E7000B50DB60DB70DA80B362FFF30B20703180E
:100E8000B30AFF30B307A61F462F472F262FB901FD
:100E9000B71F4B2F4C2F682FFF303405A800FF30B1
:100EA0003505A900FF303605AA007F303705AB00B5
:100EB0002B082A042904280403195F2F602F632FAD
:100EC000B901B90A682F241C662F672F682F602F7D
:100ED000390803196C2F6D2F9E2F0130A4070030A5
:100EE00003180130A507003003180130A6070030B1
:100EF00003180130A707271C7E2F7F2F9E2F240861
:100F0000A8002508A9002608AA002708AB00013080
:100F1000AC002B0DAB0CAA0CA90CA80CAC0B892FA8
:100F20002B08A7002A08A6002908A5002808A40065
:100F30000130B2070318B30A0030B3073308803A10
:100F4000FF0080307F02031DA72FFF303202031CF9
:100F5000AA2FAB2FB92FFF3083120313B20000303A
:100F6000B3000030A7000030A6000030A50000301C
:100F7000A400831203133308803AFF0080307F02FD
:100F8000031DC42F013032020318C72FC82FD52FDD
:100F900083120313B201B3010030A7000030A60092
:100FA0000030A5000030A400B10183120313320801
:100FB000A8002808B800381CDE2FDF2FE12FA61765
:100FC000E52F7F30A8002808A6053808A8000310E0
:100FD000280CA9002908A7003108A8002808A704A0
:100FE000892E080064008001840A04060319003475
:100FF0000406F32F7030831603138F040F140800B8
:101794008316031789018316031388018312031325
:1017A40088018B170B17831603130C178B168312E0
:1017B40003130C130B110B118B168B1708008316D4
:1017C400031307118710FF3092000C3083120313A8
:1017D40097000C309D00CF3097050F3095009D1277
:1017E4001D120F309B008C100330920412158C1CB8
:1017F400FC2BFD2BF92B8C10831603130711871078
:10180400831203139F140800F800F401F501700813
:10181400F200F3017208F6007308F700781C132C29
:10182400142C1A2C7608F4070318F50A7708F50720
:1018340001300310F60DF70DFF3E031D1B2C0310A2
:10184400F80C7808031D272C282C102C7508F1009F
:101854007408F00008008316031305081138850086
:1018640083160317080811388800831203131F080E
:101874003F3980389F00831603139F121F129F1352
:10188400C330831203139F051F08C33904389F0014
:101894001F08C33908389F001F08C3390C389F003C
:1018A4001F141A3083160313B600F730B500B50BB6
:1018B400592CB60B592C5E2C83160313811201127A
:1018C40081110108F839013881004A088312031391
:1018D400810008000A128A15CA230A128A150A12FC
:1018E4008A152D240A128A150A128A11FA270A1255
:1018F4008A150A128A15E1230A128A158312031320
:101904009F18852C862C802C1F0C83160313B7007C
:10191400370C0F39003A031D902C912C9A2CC501D9
:10192400C50A831203131F08C33904389F00DD2C32
:10193400831203131F0C83160313B700370C0F39DC
:10194400013A031DA62CA72CB22C0230B70037088D
:10195400C500831203131F08C33908389F00DD2C08
:10196400831203131F0C83160313B700370C0F39AC
:10197400023A031DBE2CBF2CCA2C0330B700370813
:10198400C500831203131F08C3390C389F00DD2CD4
:10199400831203131F0C83160313B700370C0F397C
:1019A400033A031DD62CD72CDD2CC501C33083127A
:1019B40003139F05DD2C1A3083160313B800F73088
:1019C400B700B70BE32CB80BE32CE82C83120313FA
:1019D4009F14802C0A128A111028031083120313F7
:1019E4006A0D6B0D83160313A000200883120313E2
:1019F400ED006D08031DFF2C002D092D0030EB00B8
:101A04000030EA000030E9000030E8008A2D680860
:101A140083160313A00083120313690883160313A8
:101A2400A100831203136A0883160313A20083120E
:101A340003136B0883160313A3001F300310A30CB6
:101A4400A20CA10CA00CFF3E031D202D2008A40015
:101A5400240883120313EC00EA17FF30E805FF3073
:101A6400E905FF30EA050030EB059630ED02ED1F85
:101A74003C2D3D2D5B2D6D08803A973E0318432D78
:101A8400442D452D002D01300310EB0CEA0CE90C1C
:101A9400E80CFF3E031D462D013083160313A000FE
:101AA400200883120313ED07031D592D5A2D452DCC
:101AB4007A2D20306D02031C602D612D752D002DB3
:101AC400013083160313A000031083120313E80DDF
:101AD400E90DEA0DEB0D83160313A00B662D0130FF
:101AE40083120313ED026D08031D792D7A2D622DE7
:101AF4006C0803197E2D7F2D8A2DE809E909EA096E
:101B0400EB09E80A0319E90A0319EA0A0319EB0ABB
:101B14000800831603132B08F0002C08F100003092
:101B2400F11BFF30F200F30001300A128A1542263D
:101B34000A128A15730883120313DB007208DA0091
:101B44007108D9007008D800831603132B082D02DE
:101B5400F0002C08031C2C0A2E02F100F201F11BE8
:101B6400F2037208F30001300A128A1542260A129F
:101B74008A15730883120313A7007208A60071085C
:101B8400A5007008A4008316031327082902F00097
:101B94002808031C280A2A02F100F201F11BF203AF
:101BA4007208F30001300A128A1542260A128A15B5
:101BB400730883120313A3007208A2007108A10022
:101BC4007008A0000A128A1115260A128A158312B7
:101BD40003132308C1002208C0002108BF00200805
:101BE400BE008316031327082502F0002808031CEF
:101BF400280A2602F100F201F11BF2037208F30035
:101C040001300A128A1542260A128A1573088312B1
:101C14000313BD007208BC007108BB007008BA0051
:101C24000A128A112C200A128A15831203133D0802
:101C3400D7003C08D6003B08D5003A08D4000A1265
:101C44008A118D230A128A15831203135708EB0095
:101C54005608EA005508E9005408E8000A128A15F3
:101C6400EF240A128A1583120313690883160313D7
:101C7400A60083120313680883160313A500080043
:101C8400F80078080319472E482E5C2EF31F4B2EBC
:101C94004C2E5C2E7009FA007109FB007209FC00DD
:101CA4007309FD00FA0A0319FB0A0319FC0A031954
:101CB400FD0A642E7308FD007208FC007108FB0025
:101CC4007008FA007308720471047004031D6B2E0B
:101CD4006C2E752E0030F3000030F2000030F1005D
:101CE4000030F000FB2E9630F4007408F900872EC3
:101CF4000130F4007408F90701300310FD0CFC0CEA
:101D0400FB0CFA0CFF3E031D7F2EFE307D05031DE8
:101D14008C2E8D2E7A2EA92E0130F4007408F9072A
:101D24000130FA07003003180130FB0700300318B4
:101D34000130FC07003003180130FD0701300310A7
:101D4400FD0CFC0CFB0CFA0CFF3E031DA12EFF3016
:101D54007D05031DAE2EAF2E8E2EBB2E0130F90253
:101D64000130F4000310FA0DFB0DFC0DFD0DF40B16
:101D7400B42EFC1BBE2EBF2EC52E023079020318D2
:101D8400C42EC52EB02E7918C82EC92ED12EFF30E0
:101D9400FA05FF30FB057F30FC05FF30FD0503101D
:101DA400F90C7908F400F501F601F7011830031075
:101DB400F40DF50DF60DF70DFF3E031DD92E740835
:101DC400FA047508FB047608FC047708FD04780817
:101DD4000319ED2EEE2EF32EF31FF12EF22EF32E19
:101DE400FD177D08F3007C08F2007B08F1007A08F7
:101DF400F0000800831203130C1F012F022FB42FCD
:101E0400831603134508031D082F092F2F2F831250
:101E140003131E0883160313AF0003102F0C7C3E1C
:101E24008312031395009712831603131E08AF0041
:101E340007300310AF0CFF3E031D1B2F2F08B0000B
:101E4400B00E831203131708831603133006EF39F9
:101E54003006831203139700B22F4503031D332F5B
:101E6400342F5A2F831203131E0883160313AF0053
:101E740003102F0C7C3E831203139B009D128316C8
:101E840003131E08AF0007300310AF0CFF3E031D01
:101E9400462F2F08B000B00E831203131D088316BB
:101EA40003133006EF393006831203139D00B22F5B
:101EB40002304506031D5F2F602F862F8312031304
:101EC4001E0883160313AF00B0012F08A5003008C5
:101ED400A6000030A700A800FF30A9000030AA0027
:101EE4000530AB000030AC001230AD000030AE0065
:101EF4000A128A158B250A128A15831603132508DC
:101F0400B1003108C900B22F03304506031D8B2FE1
:101F14008C2FB22F831203131E0883160313AF00F2
:101F2400B0012F08A5003008A6000030A700A800C3
:101F3400FF30A9000030AA000530AB000030AC002F
:101F44001230AD000030AE000A128A158B250A1239
:101F54008A15831603132508B1003108C800B22F6F
:101F640083120C130B1DB72FB82FF52F01308316D6
:101F74000313AF002F08C707490847020318C32FEC
:101F8400C42FC82F831203130814D32FB430470669
:101F9400031DCD2FCE2FD02FC701D32F83120313B0
:101FA4000810013083160313AF002F08C607480832
:101FB40046020318DE2FDF2FE32F83120313881446
:101FC400EE2FB4304606031DE82FE92FEB2FC60190
:101FD400EE2F831203138810831603134A08831207
:101FE400031381000B11831603133408FF00330815
:0C1FF4008A00320E8300FE0E7E0E0900F3
:08400000FF3FFF3FFF3FFF3FC0
:04400E00D420FF3F7C
:00000001FF
